:020000040000FA
:1000000090020010E9000000ED000000EF00000089
:10001000F1000000F3000000F50000000000000007
:10002000000000000000000000000000F7000000D9
:10003000F900000000000000FB000000FD000000CF
:10004000FF000000FF000000FF000000FF000000B4
:10005000FF000000FF000000FF000000FF000000A4
:10006000FF000000FF000000FF000000FF00000094
:10007000FF000000FF000000FF000000FF00000084
:10008000FF000000FF000000FF000000FF00000074
:10009000FF000000FF000000FF000000FF00000064
:1000A000FF000000B7070000FF000000FF00000095
:1000B000FF000000FF000000FF000000FF00000044
:1000C000FF000000FF000000FF000000DFF810D07C
:1000D00001F0C8FC004800470D090000AFF30080A4
:1000E0009002001000BF704705480047FEE7FEE79A
:1000F000FEE7FEE7FEE7FEE7FEE7FEE7FEE7FEE7D8
:10010000CD00000020207449086000BF72480068DC
:1001100000F040000028F9D003206F499C390860A6
:1001200000206E49C1F8A8016B490C31086001201C
:100130006949943908606A48684984310860012037
:10014000091F0860AA2065498C3108605520634961
:10015000C1F88C0000BF61488830006800F0806002
:100160000028F8D003205D4980310860AA205B494F
:10017000C1F88C00552059498C310860002056493F
:100180009839086057485549C431086000205349E0
:10019000C1F8C801514888300068C0F301600328E5
:1001A00060D14D489438006800F0030030B1012858
:1001B00020D0022839D0032853D100E000BF47489F
:1001C00088300068C0F30E00401C40004649484398
:1001D0004249D1F88810C1F30741491CB0FBF1F145
:1001E0003D489C380068C0B2401CB1FBF0F03F496C
:1001F000086036E0394888300068C0F30E00401CC3
:1002000040003B4948433549D1F88810C1F30741C4
:10021000491CB0FBF1F130489C380068C0B2401C6A
:10022000B1FBF0F0314908601BE02C4888300068D1
:10023000C0F30E00401C40004FF4FA4148432749E8
:10024000D1F88810C1F30741491CB0FBF1F12248F5
:100250009C380068C0B2401CB1FBF0F02349086034
:1002600000BF30E01C489438006800F0030030B153
:10027000012810D0022819D0032823D100E000BFA4
:1002800015489C380068C0B2401C1749B1FBF0F01B
:100290001649086016E010489C380068C0B2401C3F
:1002A0001349B1FBF0F0114908600BE00A489C3893
:1002B0000068C0B2401C4FF4FA41B1FBF0F00B49AA
:1002C000086000BF00BF0548006820F4704040F49B
:1002D0008040024908607047A0C10F4000C00F4035
:1002E00063000500DE87280400093D0000000010BF
:1002F000001BB7007047000000000000FFFFFFFF79
:1003000030B502460B46012A01D1F74D00E0F74D0A
:100310002C4600200A21F64DB5FBF1F5B5FBF3F5AF
:10032000681EC0F30900F34D55F821502843606161
:1003300030BD70B50546012D01D1EB4800E0EB481A
:100340000446012D16D1EC48006840F40050EA49FB
:10035000C439C1F8C400E948006840F00100E74929
:1003600008600846006840F004000860192000F0AA
:1003700055FA15E0E048006840F48040DE49C43991
:10038000C1F8C400DD48006840F40070DB49086033
:100390000846006840F400600860192000F03EFA4A
:1003A0000220D74908600120206000202061A06061
:1003B000D4492846FFF7A4FF0320206170BD01281F
:1003C00001D1C94A00E0C94A114600220A607047BB
:1003D00010B5012801D1C44A00E0C44A114600BF4B
:1003E000CA6902F00402002AFAD00123421EC64C58
:1003F00044F8223010BD30B50246012A01D1BA4C72
:1004000000E0BA4C20460C7B4FF4702505EA04440A
:100410004D7B012D00D100E000256D4244EAC575F9
:100420008C7B012C00D100E0002445EA8473C46970
:1004300004F0040444B103630C6844634C688463AF
:100440008C68C4632124446030BD30B50346012B61
:1004500001D1A54C00E0A54C2046026AD40F4C7394
:10046000C2F380748C73C2F303440C73446A0C604F
:100470008C7B1CB9846A4C60C56A8D6030BD2DE9E7
:10048000F04306461746DFF884C2DCF80080DFF848
:1004900080C2DCF800C00CF1010C08EB6C0CBCF560
:1004A000007F01DBBDE8F0834FF0010CDFF85082E4
:1004B000C8F800C0002F77D1A6F1010C41EA4C31F9
:1004C0004FF2FF7C01EA0C01DFF844C29CF800C047
:1004D0000CF0010CBCF1000F22D1DFF830C2DCF8C7
:1004E00000C0BCF1000F1BD0DFF824C2DCF800C054
:1004F0004FEA6C00DFF814C2DCF80050DFF8148219
:1005000058F8202007E0401CDFF8088258F8203017
:1005100048F820201A46B5F1000CA5F10105F2D1EA
:10052000DFF8ECC1DCF800C0BCF1000F08D14FF6D9
:10053000FF7C4CEA014CDFF8DC81C8F800C0B2E077
:10054000DFF8CCC1DCF800C0BCF1010F20D1DFF82E
:10055000C4C1DCF800C0B1EB1C4F0CD2DFF8B4C151
:10056000DCF800C04FEA1C4C4CEA014CDFF8A481D7
:10057000C8F800C097E0DFF89CC1DCF800C06FF35A
:100580000F0C4CEA010CDFF88C81C8F800C08AE03F
:100590000020DFF87CC1DCF80040DCF800C0ACF1E2
:1005A000010C4FEA6C0517E088E0DFF8688158F825
:1005B00020C0B1EB1C4F01D244000FE0DFF85481A2
:1005C00058F820C01FFA8CFC8C4504D94FF0010C60
:1005D0000CEB400402E0401CA842E6DD00BFA8424C
:1005E0001DDDDFF82CC19CF800C00CF0010CBCF143
:1005F000000F08D14FF6FF7C4CEA014CDFF8149154
:1006000049F820C04FE0DFF80C8158F820C06FF3A4
:100610000F0C4CEA010CC14649F820C043E0DFF85A
:10062000F48058F8202004F0010CBCF1000F04D134
:100630004FEA014C4CEA124305E04FEA124C4FEAF4
:100640000C4C4CEA0103DFF8CC8048F82030DFF88E
:10065000C0C0DCF800C04FEA6C050CE0401CDFF8BD
:10066000B48058F820304FEA134C4CEA024CC14693
:1006700049F820C01A46A842F0DBDFF894C09CF885
:1006800000C00CF0010CBCF1000F0CD1DFF884802D
:1006900058F820C06FF30F0C4FF6FF78C444DFF812
:1006A000749049F820C0DFF868C0DCF800C00CF195
:1006B000010CDFF85C80C8F800C057E0A6F1010C1F
:1006C00041EA4C71DFF848C0DCF800C00CF1010CC5
:1006D0004FEA6C00002421E0DFF8388058F820C091
:1006E0008C4519D920E000000040044000800440FF
:1006F00040787D01A41A0000C4C00F4000C0024031
:1007000000C0034040420F00040000101800001019
:100710001400001000800340401C641CDFF814C16A
:10072000DCF800C06445D7DB00BFDFF80C8158F867
:10073000202048F82010DFF8FCC0DCF800C00CF1E5
:10074000010CDFF8F080C8F800C0C446DCF800C037
:10075000ACF1010508E0401C641CDFF8DC8058F8AF
:10076000203048F820201A46AC42F4DBDFF8CCC039
:10077000DCF800C00CF1010C4FEA6C0C4FEA8C0263
:10078000DFF8B0C0DCF800C002EB8C034FF0000CC7
:10079000DFF8AC80C8F804C0C446CCF80820CCF818
:1007A0000C20CCF81030CCF814304FF0000CC8F806
:1007B00000C000BF76E608B52248C06800900098E7
:1007C00000F0010048B120490120FFF73EFE04205F
:1007D0001C49486001201D490860009800F0020093
:1007E00010B101201A4908601A48C06800900098AA
:1007F00000F0010050B1144910310220FFF725FE2E
:10080000042014494860012010494860009800F015
:10081000020010B101200E49486008BD00F01F021F
:10082000012191404209920002F1E022C2F8001138
:1008300070470000180000100080034014000010F2
:1008400000C00340004004406C0000100C00001089
:10085000040000100080044000E0401E0028FCD18D
:100860007047302201F8012B782201F8012B5A4AF7
:1008700002EB2012127801F8012B00F00F02564B08
:100880009A5C01F8012B704710B500F0E5F810BD37
:1008900010B500F0F8F800F009F9C0F3071400F003
:1008A000FEF8204610BD10B54C4908784C49FFF7BA
:1008B000D8FF4C4908784A490931FFF7D2FF484A26
:1008C000121F0021062000F0ECFE4649087800F0D7
:1008D0002EF94548FFF7C0FF10BD10B50120FFF706
:1008E00028FD0220FFF725FD002221210120FFF72E
:1008F000C6FD0120FFF763FD0220FFF760FD012028
:10090000FFF766FD0220FFF763FD10BDFFF7FAFB5E
:10091000FFF7BAFFFFF7E1FF00F09EF94FF6FF7017
:1009200000F006FE1F2000F000FE4FF6FF7000F002
:10093000F9FD2EA20021084600F0B3FE31A20021ED
:10094000012000F0AEFE35A20021022000F0A9FE39
:100950004FF6FF7000F0E9FD1F2000F0E3FD35A227
:100960000021052000F09DFE212037490861002468
:1009700004E000213448001D0155641C082CF8DBFC
:1009800001213148017700214177817722E0FFF78B
:100990007FFF124908602D48406858B100202B495C
:1009A00048600E4801782848017500F110010220C6
:1009B000FFF721FD42F21070FFF74EFF2448006858
:1009C00030B10020224908602248007905490860BA
:1009D000FFF769FFDBE70000240000101C00001097
:1009E000380000102000001040420F002020204C52
:1009F000616E6454696765722044656D6F202020C4
:100A00000000000020202020202043414E2044658B
:100A10006D6F20202020202000000000202077770C
:100A2000772E506F7765724D43552E636F6D202082
:100A3000000000002043414E20617420314D626966
:100A4000742F7320202000004C00001004000010C0
:100A50000C0000106C0000101A48C06820F04040E4
:100A60001849C8600846C06840F04040C860164851
:100A7000006840F480501449C439C1F8C4001348D8
:100A80001349086070471248006820F0E060104980
:100A900008600846006840F08070086070470C48A5
:100AA000006820F0E0600A490860704700BF08480D
:100AB000406800F000400028F9D005484168C1F3C3
:100AC0000B10704700C00240C4C00F40200420003B
:100AD000004003402448006C40F0FF0022490864B5
:100AE0007047014600200CE0012282400A403AB1E2
:100AF0001D4A526D1D4B53F820301A431A4B5A654C
:100B0000401C0828F0DB7047014600200CE0012261
:100B100082400A403AB1144A526D144B53F82030C7
:100B20009A43114B5A65401C0828F0DB7047014678
:100B3000002015E0012282400A4042B10A4A526D6B
:100B40000A4B53F820301A43074B5A6507E0064A10
:100B5000526D064B53F820309A43034B5A65401CA4
:100B60000828E7DB7047000000C00920E81A0000F1
:100B7000800400BF011EA0F10100FBD1704700BF3F
:100B8000011EA0F10100FBD170470146FE48006C38
:100B900040F0FF00FC4A10644FF400109061801098
:100BA000D061104641654FF480109061D061081209
:100BB00050650120704710B504464FF40000F2491B
:100BC000C861800088612046FFF7DFFF4FF080702A
:100BD000ED49C861FFF786FA4FF08070EA498861F5
:100BE00010BD10B504464FF40000E749886180004D
:100BF00088612046FFF7C9FF4FF08070E249C86165
:100C0000FFF770FA4FF08070DF49886110BD70B552
:100C100005460C464FF48000DB49C8612846FFF7C3
:100C2000CAFF2046FFF7DDFF4FF48000D6498861F8
:100C300070BD70B5044600254FF48000D249C861EC
:100C4000E0B2FFF7B8FF00F0BEFE05464FF48000AB
:100C5000CD498861284670BD10B5CB48006840F08A
:100C60007E70C94908604FF07E7088610520FFF7EB
:100C70007FFF0020FFF7DDFFC44908800846008899
:100C800044F2315188427CD101210020FFF7BFFF9F
:100C90004FF4C5611020FFF7BAFF06211220FFF7BD
:100CA000B6FF40F632211320FFF7B1FF402111209B
:100CB000FFF7ADFF50211520FFF7A9FF16211220E5
:100CC000FFF7A5FF0F20FFF753FF45F260611020EB
:100CD000FFF79DFF0F20FFF74BFF42F64E21132039
:100CE000FFF795FF4FF480710120FFF790FF4FF45D
:100CF00040710220FFF78BFF41F230010320FFF724
:100D000086FF40F202210820FFF781FF00210A2020
:100D1000FFF77DFF00213020FFF779FF40F202410D
:100D20003120FFF774FF4FF483713220FFF76FFF1C
:100D30004FF4E0613320FFF76AFF4FF482713420F3
:100D4000FFF765FF40F201313520FFF760FF40F209
:100D500007713620FFF75BFF40F205313720FFF7C0
:100D600056FF4FF402713820FFF751FF40F60B7128
:100D70003920FFF74CFF0F20FFF7FAFE0221412038
:100D800000E028E0FFF743FF4FF41C516020FFF71D
:100D90003EFF01216120FFF73AFF40F21911902038
:100DA000FFF735FF4FF485719220FFF730FF0421E4
:100DB0009320FFF72CFF4FF48071A020FFF727FF4F
:100DC0000F20FFF7D5FE0021A020FFF720FF142001
:100DD000FFF7CEFE04E26D48008849F225318842D3
:100DE0007DD11021E720FFF712FF01210020FFF73E
:100DF0000EFF4FF480710120FFF709FF4FF4E0610F
:100E00000220FFF704FF41F230010320FFF7FFFE4D
:100E100000210420FFF7FBFE40F207210820FFF726
:100E2000F6FE00210920FFF7F2FE00210A20FFF75D
:100E3000EEFE01210C20FFF7EAFE00210D20FFF756
:100E4000E6FE00210F20FFF7E2FE00211020FFF751
:100E5000DEFE07211120FFF7DAFE00211220FFF746
:100E6000D6FE00211320FFF7D2FE0F20FFF780FEF1
:100E700041F290511020FFF7CAFE40F227211120C5
:100E8000FFF7C5FE0F20FFF773FE9C211220FFF72E
:100E9000BEFE0F20FFF76CFE4FF4C8511320FFF782
:100EA000B6FE23212920FFF7B2FE0E212B20FFF7EB
:100EB000AEFE0F20FFF75CFE00212020FFF7A7FE0B
:100EC00000212120FFF7A3FE0F20FFF751FE07218D
:100ED0003020FFF79CFE40F20771312000E08AE0ED
:100EE000FFF795FE06213220FFF791FE40F20471D4
:100EF0003520FFF78CFE41F604713620FFF787FEA0
:100F000004213720FFF783FE00213820FFF77FFE02
:100F100040F206713920FFF77AFE40F201713C2061
:100F2000FFF775FE0F213D20FFF771FE0F20FFF741
:100F30001FFE00215020FFF76AFEEF215120FFF72E
:100F400066FE00215220FFF762FE40F23F1153205F
:100F5000FFF75DFE4FF427416020FFF758FE0121A7
:100F60006120FFF754FE00216A20FFF750FE0021A8
:100F70008020FFF74CFE00218120FFF748FE002172
:100F80008220FFF744FE03E000C009204A00001061
:100F900000218320FFF73BFE00218420FFF737FE6E
:100FA00000218520FFF733FE10219020FFF72FFE50
:100FB00000219220FFF72BFE03219320FFF727FE4D
:100FC0004FF488719520FFF722FE00219720FFF74C
:100FD0001EFE00219820FFF71AFE40F23311072071
:100FE000FFF715FE00212020FFF711FE0021212030
:100FF000FFF70DFEF4E0FE48008849F220318842F8
:10100000F8D14FF40041E520FFF701FE0121002057
:10101000FFF7FDFD4FF480710120FFF7F8FD4FF45D
:10102000E0610220FFF7F3FD41F230010320FFF7FA
:10103000EEFD00210420FFF7EAFD40F20221082026
:10104000FFF7E5FD00210920FFF7E1FD00210A205F
:10105000FFF7DDFD00210C20FFF7D9FD00210D2059
:10106000FFF7D5FD00210F20FFF7D1FD0021102053
:10107000FFF7CDFD00211120FFF7C9FD002112204F
:10108000FFF7C5FD00211320FFF7C1FD1420FFF776
:101090006FFD41F2B0711020FFF7B9FD40F237113A
:1010A0001120FFF7B4FD0520FFF762FD40F2391172
:1010B0001220FFF7ACFD0520FFF75AFD4FF4E85171
:1010C0001320FFF7A4FD13212920FFF7A0FD052021
:1010D000FFF74EFD00212020FFF799FD0021212080
:1010E000FFF795FD06213020FFF791FD40F2011139
:1010F0003120FFF78CFD03213220FFF788FD4FF4EC
:1011000083713520FFF783FD40F602313620FFF76B
:101110007EFD40F202313720FFF779FD40F2077182
:101120003820FFF774FD07213920FFF770FD4FF4D9
:10113000C0613C20FFF76BFD40F20B213D20FFF723
:1011400066FD00215020FFF762FDEF215120FFF7DF
:101150005EFD00215220FFF75AFD40F23F1153205F
:10116000FFF755FD4FF41C516020FFF750FD0121A2
:101170006120FFF74CFD00216A20FFF748FD0021A8
:101180008020FFF744FD00218120FFF740FD002172
:101190008220FFF73CFD00218320FFF738FD00216E
:1011A0008420FFF734FD00218520FFF730FD10215A
:1011B0009020FFF72CFD00219220FFF728FD03214E
:1011C0009320FFF724FD4FF488719520FFF71FFD52
:1011D00000219720FFF71BFD00219820FFF717FD46
:1011E00041F238010320FFF712FD40F2731107208E
:1011F000FFF70DFD7E48008848F6891188427DD1B1
:1012000001210020FFF703FD0520FFF7B1FC4AF69E
:10121000A4010320FFF7FBFC0520FFF7A9FC002138
:101220000C20FFF7F4FC0520FFF7A2FC40F60C01B0
:101230000D20FFF7ECFC0520FFF79AFC4FF42C5132
:101240000E20FFF7E4FC0520FFF792FCB0211E20E2
:10125000FFF7DDFC0520FFF78BFC42F63F31012054
:10126000FFF7D5FC0520FFF783FC4FF4C061022097
:10127000FFF7CDFC0520FFF77BFC00211020FFF7D6
:10128000C6FC0520FFF774FC46F278011120FFF739
:10129000BEFC0520FFF76CFC00210520FFF7B7FC22
:1012A0000520FFF765FC00210620FFF7B0FC0520B4
:1012B000FFF75EFC4EF61C711620FFF7A8FC052018
:1012C000FFF756FC03211720FFF7A1FC0520FFF7CD
:1012D0004FFC40F233210720FFF799FC0520FFF770
:1012E00047FC00210B20FFF792FC0520FFF740FC94
:1012F00000210F20FFF78BFC052000E0B5E0FFF791
:1013000037FC00214120FFF782FC0520FFF730FC6D
:1013100000214220FFF77BFC0520FFF729FC00217C
:101320004820FFF774FC0520FFF722FC40F23F1134
:101330004920FFF76CFC0520FFF71AFC00214A202A
:10134000FFF765FC0520FFF713FC00214B20FFF79A
:101350005EFC0520FFF70CFC4FF46F414420FFF7C3
:1013600056FC0520FFF704FC00214520FFF74FFC49
:101370000520FFF7FDFB40F23F114620FFF747FC39
:101380000520FFF7F5FB40F207713020FFF73FFC27
:101390000520FFF7EDFB4FF401713120FFF737FC1B
:1013A0000520FFF7E5FB4FF401713220FFF72FFC1A
:1013B0000520FFF7DDFB40F202513320FFF727FC49
:1013C0000520FFF7D5FB40F207513420FFF71FFC43
:1013D0000520FFF7CDFB4FF401713520FFF717FC17
:1013E0000520FFF7C5FB4FF40171362002E0000035
:1013F0004A000010FFF70BFC0520FFF7B9FB40F295
:1014000002513720FFF703FC0520FFF7B1FB40F244
:1014100002313A20FFF7FBFB0520FFF7A9FB40F262
:1014200002313B20FFF7F3FB0520FFF7A1FB002172
:101430002320FFF7ECFB0520FFF79AFB0021242077
:10144000FFF7E5FB0520FFF793FB4FF40041252054
:10145000FFF7DDFB0520FFF78BFB00214F20FFF797
:10146000D6FB00214E20FFF7D2FB10BD10B5FE4881
:10147000008848F68911884212D100214420FFF7E4
:10148000C6FB4FF46F414420FFF7C1FB002145200C
:10149000FFF7BDFB40F23F114620FFF7B8FB10E01D
:1014A00000215020FFF7B3FBEF215120FFF7AFFBE6
:1014B00000215220FFF7ABFB40F23F115320FFF712
:1014C000A6FB10BD70B504460D46E748008848F6F7
:1014D000891188420BD1A9B24E20FFF798FB40F248
:1014E0003F10001B81B24F20FFF791FB0AE0A9B229
:1014F0002020FFF78CFB40F23F10001B81B221201F
:10150000FFF785FB4FF48000D849C8612220FFF720
:1015100052FBD7480088FFF764FB4FF48000D349A3
:10152000886170BDD24908807047D24908807047F1
:1015300070B50546FFF79AFFCB48008848F6891139
:10154000884208D100214E20FFF761FB00214F2087
:10155000FFF75DFB07E000212020FFF758FB00218B
:101560002120FFF754FB4FF48000C049C8612220BE
:10157000FFF721FB00F058FA002403E0284600F0B2
:101580005DFA641CB4F5963FF8D300F052FA70BDD2
:101590002DE9F04704460D4616464FF00009C4F504
:1015A0009874B148008848F6891188421ED1A9B2C2
:1015B0004420FFF72CFB05F1170045EA002081B21B
:1015C0004420FFF724FBA1B24520FFF720FB04F1E4
:1015D0000F0081B24620FFF71AFBA9B24E20FFF799
:1015E00016FBA1B24F20FFF712FB1BE0A9B250205F
:1015F000FFF70DFB05F1170081B25120FFF707FB44
:10160000A1B25220FFF703FB04F10F0081B2532077
:10161000FFF7FDFAA9B22020FFF7F9FAA1B22120C5
:10162000FFF7F5FA4FF480009049C8612220FFF7D8
:10163000C2FA00F0F9F94FF0000816E00F270FE0AA
:1016400036F819100120B840014021B989480088B6
:1016500000F0F4F903E08648008800F0EFF97F1EFF
:10166000002FEDDAB61C08F10108B8F1180FE5DB20
:1016700000F0DFF9BDE8F0872DE9F04105460E46A0
:101680001446A4F12000C4B204EB44037A4F07EBE4
:10169000031205EB4503D9003001FFF779FFBDE8E0
:1016A000F08170B506460D461446FFF7DFFE06E0F2
:1016B00014F8012B29466D1C3046FFF7DDFF20781A
:1016C0000028F5D170BD10B50446FFF7CFFE6BA220
:1016D00000212046FFF7E5FF10BD2DE9F047044645
:1016E0000D4616469946DDF820A0C4F5A070841B6F
:1016F0005D48008848F68911884216D1A9B2442075
:10170000FFF785FA05F1170045EA002081B2442071
:10171000FFF77DFAA1B24520FFF779FAA019401E24
:1017200081B24620FFF773FA13E0A9B25020FFF709
:101730006EFA05F1170081B25120FFF768FAA1B2E5
:101740005220FFF764FAA019401E81B25320FFF720
:101750005EFA0AFB06F04FEA902A4348008848F6F2
:101760008911884208D1A9B24E20FFF750FAA1B2E0
:101770004F20FFF74CFA07E0A9B22020FFF747FA05
:10178000A1B22120FFF743FA4FF480003749C86126
:101790002220FFF710FA00F047F9002713E0A6F126
:1017A00001080CE0D04504D33248008800F046F927
:1017B00003E02F48008800F041F9A8F10108B8F1D2
:1017C000000FEFDA7F1C4F45E9D300F032F9BDE896
:1017D000F0872DE9F05F04460D4616461F46DDF8FA
:1017E00028B0D846C4F5A070841B1F48008848F66E
:1017F000891188421ED1A9B24420FFF708FAE819DE
:10180000401E45EA002081B24420FFF700FAA1B251
:101810004520FFF7FCF9A019401E81B24620FFF7D2
:10182000F6F9A9B24E20FFF7F2F9A1B24F20FFF767
:10183000EEF932E0A9B25020FFF7E9F9E819401EAD
:1018400081B25120FFF7E3F9A1B25220FFF7DFF98F
:10185000A019401E81B25320FFF7D9F9A9B2202068
:10186000FFF7D5F9A1B215E04A00001000C0092029
:101870004600001048000010081B00002020202017
:101880002020202020202020202020202020202058
:10189000000000002120FFF7BAF94FF480006F49E3
:1018A000C8612220FFF787F900F0BEF84FF0000969
:1018B00012E0701E08EB40084FF0000A05E038F80F
:1018C000020900F0BBF80AF1010AB245F7D3701C17
:1018D00008EB400809F10109B945EAD300F0A9F87D
:1018E000BDE8F09F2DE9F05F04460D4616461F4601
:1018F000DDF828B0D946C4F5A070841B584800888C
:1019000048F6891188421ED1A9B24420FFF77FF919
:10191000E819401E45EA002081B24420FFF777F91C
:10192000A1B24520FFF773F9A019401E81B24620ED
:10193000FFF76DF9A9B24E20FFF769F9A1B24F2068
:10194000FFF765F91BE0A9B25020FFF760F9E8192D
:10195000401E81B25120FFF75AF9A1B25220FFF781
:1019600056F9A019401E81B25320FFF750F9A9B2D1
:101970002020FFF74CF9A1B22120FFF748F94FF4DE
:1019800080003649C8612220FFF715F900F04CF8B5
:1019900007FB06F0401E09EB40094FF000080CE081
:1019A0004FF0000A05E039F8020900F047F80AF1A3
:1019B000010AB245F7D308F10108B845F0D300F0A9
:1019C00038F8BDE8F09F10B500244FF4000023491B
:1019D0008861400088614000C86100BF0846006C13
:1019E00020F0FF0008644FF40010C8618010C86147
:1019F0005020FFF7C4F81948406DC3B24FF40020DF
:101A0000164988615020FFF7BAF81448406D63F317
:101A10001F2003464FF400101049886100BF1C4688
:101A200000018861204610BD4FF400000B49886119
:101A300070474FF4800009498861704710B504462B
:101A40002046FFF7A2F84FF080700449C861FEF706
:101A500049FB4FF080700149886110BD00C009202A
:101A60004A000010064C074D06E0E06840F0010314
:101A700094E8070098471034AC42F6D3FEF72AFBEF
:101A8000083000002830000002E008C8121F08C11A
:101A9000002AFAD17047002001E001C1121F002A7C
:101AA000FBD17047000000000000000000000000B3
:101AB0000000000000C001000000000000C0120093
:101AC0000000000000C023000000000000C025004E
:101AD0000000000000C03600000000000000000010
:101AE00000C0480000C049000100000002000000E2
:101AF00004000000080000001000000020000000AA
:101B00004000000080000000000000000000000015
:101B100000000000000000000000000000000000C5
:101B200000000000000000000000000000000000B5
:101B30000000000000000000000080018001800122
:101B4000800180018001800180018001800180018D
:101B50008001800100000000800180010000000081
:101B6000000000000000000000000000CC00CC00DD
:101B7000CC00CC00CC00CC00000000000000000035
:101B80000000000000000000000000000000000055
:101B90000000000000000000000000000000000045
:101BA00000000000600C600C600C30063006FE1F68
:101BB000FE1F300638071803FE1FFE1F1803180308
:101BC0008C018C018C01000000008000E003F80F04
:101BD0009C0E8C1C8C188C009800F801E007800E7D
:101BE000801C8C188C189C18B80CF00FE003800037
:101BF00080000000000000000000000000000E183F
:101C00001B0C110C11061106110311039B018E010F
:101C1000C038C06C60446044304430441844186C90
:101C20000C380000000000000000E001F00338075D
:101C3000180618063003F001F000F8009C310E334E
:101C4000061E061C061C063FFC73F0210000000067
:101C50000000000000000000000000000C000C006C
:101C60000C000C000C000C00000000000000000044
:101C70000000000000000000000000000000000064
:101C800000000000000000000000000200038001CE
:101C9000C000C00060006000300030003000300044
:101CA000300030003000300060006000C000C00034
:101CB0008001000300020000000020006000C0005E
:101CC00080018001000300030006000600060006F4
:101CD00000060006000600060003000380018001E4
:101CE000C0006000200000000000000000000000B4
:101CF00000000000C000C000D806F807E001300373
:101D00003807000000000000000000000000000094
:101D100000000000000000000000000000000000C3
:101D20000000000080018001800180018001FC3FF3
:101D3000FC3F8001800180018001800100000000E3
:101D40000000000000000000000000000000000093
:101D50000000000000000000000000000000000083
:101D60000000000000000000000080018001000170
:101D700000018000000000000000000000000000E2
:101D80000000000000000000000000000000000053
:101D9000E007E00700000000000000000000000075
:101DA0000000000000000000000000000000000033
:101DB0000000000000000000000000000000000023
:101DC00000000000000000000000C000C000000093
:101DD00000000000000000000000000C000C0006E5
:101DE0000006000600030003000380038001800159
:101DF0008001C000C000C000600060000000000062
:101E000000000000000000000000E003F007380EB2
:101E1000180C0C180C180C180C180C180C180C18A2
:101E20000C180C18180C380EF007E0030000000026
:101E30000000000000000000000000018001C0015F
:101E4000F0019801880180018001800180018001FA
:101E5000800180018001800180018001000000007C
:101E600000000000000000000000E003F80F180C64
:101E70000C180C1800180018000C00060003800154
:101E8000C000600030001800FC1FFC1F00000000B4
:101E900000000000000000000000E001F807180E3C
:101EA0000C0C0C0C000C0006C003C007000C001842
:101EB00000180C180C18180CF807E00300000000BC
:101EC00000000000000000000000000C000E000FE9
:101ED000000F800DC00C600C600C300C180C0C0C4A
:101EE000FC3FFC3F000C000C000C000C000000004C
:101EF00000000000000000000000F80FF80F1800BC
:101F000018000C00EC03FC071C0E001C0018001845
:101F100000180C181C0C180EF807E0030000000055
:101F200000000000000000000000C007F00F381C97
:101F3000181818000C00CC03EC0F3C0E1C1C0C18DD
:101F40000C180C18181C380EF007E00300000000F5
:101F500000000000000000000000FC1FFC1F000C3F
:101F600000060006000380038001C001C000E000FD
:101F700060006000700030003000300000000000A1
:101F800000000000000000000000E003F007380E31
:101F9000180C180C180C3806F007F007180C0C1861
:101FA0000C180C180C18380CF80FE0030000000097
:101FB00000000000000000000000E003F007380E01
:101FC0001C0C0C180C180C181C1C381EF81BE019E3
:101FD0000018000C000C1C0EF807F00100000000B7
:101FE00000000000000000000000000000000000F1
:101FF00000000000800180010000000000000000DF
:1020000000000000000000008001800100000000CE
:1020100000000000000000000000000000000000C0
:1020200000000000800180010000000000000000AE
:10203000000000000000000080018001000100019C
:102040008000000000000000000000000000000010
:1020500000000000000000000010001C800FE003E2
:10206000F8001800F800E003800F001C00100000CA
:102070000000000000000000000000000000000060
:102080000000000000000000F81F00000000000039
:10209000F81F000000000000000000000000000029
:1020A0000000000000000000000000000000000030
:1020B000000000000000000008003800F001C00728
:1020C000001F0018001FC007F001380008000000C2
:1020D00000000000000000000000E003F80F180CF2
:1020E0000C180C180018000C000600038001C0003A
:1020F000C000C00000000000C000C00000000000E0
:10210000000000000000000000000000E0071818B8
:102110000420C229224A11440944094409440922DD
:102120001113E20C024004201818E0070000000020
:102130000000000000000000000080038003C006D3
:10214000C006C006600C600C301830183018F83F1C
:10215000F83F1C700C600C6006C006C00000000058
:1021600000000000000000000000FC03FC0F0C0C4D
:102170000C180C180C180C0CFC07FC0F0C180C306D
:102180000C300C300C300C18FC1FFC070000000059
:1021900000000000000000000000C007F01F3838F9
:1021A0001C300C70066006000600060006000600E3
:1021B000060006600C701C30F01FE00700000000F5
:1021C00000000000000000000000FE03FE0F060EED
:1021D000061806180630063006300630063006307F
:1021E000063006180618060EFE0FFE03000000005B
:1021F00000000000000000000000FC3FFC3F0C005D
:102200000C000C000C000C00FC1FFC1F0C000C0050
:102210000C000C000C000C00FC3FFC3F0000000018
:1022200000000000000000000000F83FF83F180028
:102230001800180018001800F81FF81F18001800E0
:1022400018001800180018001800180000000000FE
:1022500000000000000000000000E00FF83F3C78A4
:102260000E6006E007C00300030003FE03FE03C088
:1022700007C006C00EC03CF0F83FE00F00000000B1
:10228000000000000000000000000C300C300C309A
:102290000C300C300C300C30FC3FFC3F0C300C3060
:1022A0000C300C300C300C300C300C3000000000C6
:1022B000000000000000000000008001800180019B
:1022C0008001800180018001800180018001800106
:1022D00080018001800180018001800100000000F8
:1022E00000000000000000000000000600060006DC
:1022F00000060006000600060006000600060006AE
:102300000006180618063807F003E0010000000078
:102310000000000000000000000006300618060C57
:10232000060606038601C60066007600DE008E0102
:1023300006030606060C06180630066000000000BC
:102340000000000000000000000018001800180045
:1023500018001800180018001800180018001800BD
:102360001800180018001800F81FF81F00000000DF
:10237000000000000000000000000EE01EF01EF053
:102380001EF036D836D836D836D866CC66CC66CC71
:10239000C6C6C6C6C6C6C6C686C386C3000000007B
:1023A000000000000000000000000C301C303C3039
:1023B0003C306C306C30CC30CC308C310C330C3346
:1023C0000C360C360C3C0C3C0C380C300000000079
:1023D00000000000000000000000E007F81F1C38AB
:1023E0000E70066003C003C003C003C003C003C077
:1023F00003C006600E701C38F81FE00700000000E4
:1024000000000000000000000000FC0FFC1F0C3862
:102410000C300C300C300C300C18FC1FFC070C007E
:102420000C000C000C000C000C000C000000000064
:1024300000000000000000000000E007F81F1C384A
:102440000E70066003E003C003C003C003C003C0F6
:1024500007E006630E3F1C3CF83FE0F700C00000B9
:1024600000000000000000000000FE0FFE1F063804
:102470000630063006300638FE1FFE070603060645
:10248000060C06180618063006300660000000002C
:1024900000000000000000000000E003F80F1C0C2A
:1024A0000C180C180C001C00F803E00F001E00387C
:1024B000063006300E301C1CF80FE007000000004C
:1024C00000000000000000000000FE7FFE7F800191
:1024D00080018001800180018001800180018001F4
:1024E00080018001800180018001800100000000E6
:1024F000000000000000000000000C300C300C3028
:102500000C300C300C300C300C300C300C300C30EB
:102510000C300C300C301818F81FE00700000000D9
:1025200000000000000000000000036006300630DC
:1025300006300C180C180C18180C180C380E300635
:102540003006700760036003C001C0010000000096
:10255000000000000000000000000360C361C361D0
:10256000C3616633663366336633663366336C1B2A
:102570006C1B6C1B2C1A3C1E380E380E0000000021
:10258000000000000000000000000FE00C70183098
:102590003018700C600EC00780038003C003E00693
:1025A000700C301C18180C300E6007E000000000A2
:1025B0000000000000000000000003C006600C30B6
:1025C0001C383818300C6006E007C0038001800119
:1025D00080018001800180018001800100000000F5
:1025E00000000000000000000000FC7FFC7F006095
:1025F00000300018000C000600038001C0006000DD
:10260000300018000C000600FE7FFE7F0000000076
:1026100000000000000000000000E003E003600094
:1026200060006000600060006000600060006000AA
:10263000600060006000600060006000600060009A
:102640006000E003E00300000000300030006000A4
:1026500060006000C000C000C000C00180018001B7
:1026600080010003000300030006000600000000D4
:1026700000000000000000000000E003E003000391
:102680000003000300030003000300030003000332
:102690000003000300030003000300030003000322
:1026A0000003E003E003000000000000C001C001DF
:1026B00060036003600330063006180C180C00003D
:1026C000000000000000000000000000000000000A
:1026D00000000000000000000000000000000000FA
:1026E00000000000000000000000000000000000EA
:1026F00000000000000000000000FFFFFFFF0000DE
:10270000000000000000000000000C000C000C00A5
:102710000C000C000C000000000000000000000095
:1027200000000000000000000000000000000000A9
:102730000000000000000000000000000000000099
:1027400000000000F003F8071C0C0C0C000FF00F49
:10275000F80C0C0C0C0C1C0FF80FF018000000000B
:102760000000000000000000000018001800180021
:1027700018001800D803F80F380C18181818181873
:10278000181818181818380CF80FD8030000000093
:102790000000000000000000000000000000000039
:1027A00000000000C003F007300E180C18001800DD
:1027B00018001800180C300EF007C00300000000CD
:1027C00000000000000000000000001800180018C1
:1027D00000180018C01BF01F301C18181818181803
:1027E000181818181818301CF01FC01B0000000023
:1027F00000000000000000000000000000000000D9
:1028000000000000C003F00F300C1818F81FF81F6C
:10281000180018003818301CF00FC0070000000026
:1028200000000000000000000000800FC00FC0008A
:10283000C000C000F007F007C000C000C000C0002A
:10284000C000C000C000C000C000C0000000000008
:102850000000000000000000000000000000000078
:1028600000000000E00DF80F180E0C0C0C0C0C0C06
:102870000C0C0C0C0C0C180EF80FE00D000C0C0CD2
:102880001C06F807F00100000000180018001800EE
:1028900018001800D807F80F381C1818181818183E
:1028A0001818181818181818181818180000000008
:1028B00000000000000000000000C000C000000098
:1028C00000000000C000C000C000C000C000C00088
:1028D000C000C000C000C000C000C0000000000078
:1028E00000000000000000000000C000C000000068
:1028F00000000000C000C000C000C000C000C00058
:10290000C000C000C000C000C000C000C000C000C7
:10291000C000F8007800000000000C000C000C0063
:102920000C000C000C0C0C060C038C01CC006C0091
:10293000FC009C018C030C030C060C0C0000000036
:1029400000000000000000000000C000C000C00047
:10295000C000C000C000C000C000C000C000C00077
:10296000C000C000C000C000C000C00000000000E7
:102970000000000000000000000000000000000057
:10298000000000007C3CFF7EC7E383C183C183C19C
:1029900083C183C183C183C183C183C1000000009F
:1029A0000000000000000000000000000000000027
:1029B000000000009807F80F381C1818181818188D
:1029C00018181818181818181818181800000000E7
:1029D00000000000000000000000000000000000F7
:1029E00000000000C003F00F300C18181818181859
:1029F000181818181818300CF00FC0030000000049
:102A000000000000000000000000000000000000C6
:102A100000000000D803F80F380C18181818181800
:102A2000181818181818380CF80FD80318001800C0
:102A3000180018001800000000000000000000004E
:102A400000000000C01BF01F301C181818181818C0
:102A5000181818181818301CF01FC01B0018001880
:102A6000001800180018000000000000000000001E
:102A700000000000B007F0037000300030003000AC
:102A80003000300030003000300030000000000026
:102A90000000000000000000000000000000000036
:102AA00000000000E003F003380E180C3800F003BB
:102AB000C007000C180C380EF007E00300000000FF
:102AC0000000000000000000000000008000C000C6
:102AD000C000C000F007F007C000C000C000C00088
:102AE000C000C000C000C000C00780070000000098
:102AF00000000000000000000000000000000000D6
:102B000000000000181818181818181818181818A5
:102B1000181818181818381CF01FE01900000000C9
:102B200000000000000000000000000000000000A5
:102B3000000000000C18180C180C180C3006300699
:102B40003006600360036003C001C00100000000A4
:102B50000000000000000000000000000000000075
:102B600000000000C141C141C361636363636363EB
:102B70003636363636361C1C1C1C1C1C0000000069
:102B80000000000000000000000000000000000045
:102B9000000000001C38381C300C6006C003C00365
:102BA000C003C0036006300C381C1C380000000055
:102BB0000000000000000000000000000000000015
:102BC000000000001830301830187018600C600CCD
:102BD000E00CC006C00680038003800380018001F2
:102BE000C001F000700000000000000000000000C4
:102BF00000000000FC1FFC1F000C00060003800109
:102C0000C000600030001800FC1FFC1F0000000026
:102C10000000000000000000000000038001C00070
:102C2000C000C000C000C000C000600060003000F4
:102C300060004000C000C000C000C000C000C00074
:102C4000800100030000000000008001800180017D
:102C5000800180018001800180018001800180016C
:102C6000800180018001800180018001800180015C
:102C7000800180018001000000006000C000C001F0
:102C800080018001800180018001000300030006B3
:102C9000000300018001800180018001800180012A
:102CA000C000600000000000000000000000000004
:102CB0000000000000000000F010F81F080F0000E6
:102CC0000000000000000000000000000000000004
:102CD00000000000000000000000000000000000F4
:102CE00000000000000000000000000000000000E4
:102CF00000000000000000000000000000000000D4
:102D000000000000000000000000000000000000C3
:102D10000000C003300C08100420042002400240D0
:102D2000024002400240042004200810300CC0037E
:102D30000000000000000000000000000000000093
:102D40000000C003F00FF81FFC3FFC3FFE7FFE7F3A
:102D5000FE7FFE7FFE7FFC3FFC3FF81FF00FC003AD
:102D60000000000000000000000000000000000063
:102D7000000000000000E007F00F181818181818DD
:102D8000181818181818F00FE007000000000000CD
:102D90000000000000000000000000000000000033
:102DA000000000000000E007F00FF81FF81FF81FF8
:102DB000F81FF81FF81FF00FE007000000000000E8
:102DC0000000000000000000000000000000000003
:102DD00000000000000000000000000000000000F3
:102DE0008001C0036006300C18181818F81FF81F6F
:102DF00000000000000000000000000000000000D3
:102E000000000000000000000000000000000000C2
:102E10008001C003E007F00FF81FF81FF81FF81F2C
:102E200000000000000000000000000000000000A2
:102E3000F81FF81F18181818300C6006C00380011E
:102E40000000000000000000000000000000000082
:102E50000000000000000000000000000000000072
:102E6000F81FF81FF81FF81FF00FE007C0038001DC
:102E70000000000000000000000000000000000052
:102E80000000000000000000000000000000000042
:102E9000000000000000E001F00198018C018601B3
:102EA00086018C019801F001E001000000000000A3
:102EB0000000000000000000000000000000000012
:102EC000000000000000E001F001F801FC01FE013B
:102ED000FE01FC01F801F001E0010000000000002B
:102EE00000000000000000000000000000000000E2
:102EF0000000000000008007800F80198031806191
:102F0000806180318019800F800700000000000080
:102F100000000000000000000000000000000000B1
:102F20000000000000008007800F801F803F807F2E
:102F3000807F803F801F800F80070000000000001E
:102F400000000000000000000000C001200220027C
:102F5000400130060808080808080808080808089A
:102F60000808200220022002200220022002200263
:102F700020022002200200000000C001E003E00364
:102F8000C001F007D80DD80DD80DD80DD80DD80D2B
:102F9000D80D600360036003600360036003600397
:102FA00060036003600300000000C00120022002F3
:102FB0004001300608080808080804100220022012
:102FC0004001200220021004080808080410041020
:102FD00004200440000000000000C001E003E00302
:102FE000C001F007D80DD80DD80DCC19C631C2617B
:102FF000C001600360037006380C180C0C180C1824
:103000000C300C60000000002830000000000010B0
:103010004C000000881A0000743000004C000010C2
:1030200044020000961A000000093D000000000064
:103030000000000000000000000000000000000090
:1030400000000000000000000000000030313233BA
:103050003435363738394142434445462054783A6E
:10306000202020202C2052783A2020202000000010
:04307000FFFF00005E
:04000005000000CD2A
:00000001FF
